{
  "_format": "hh-sol-artifact-1",
  "contractName": "ZamaFheCheckIn",
  "sourceName": "contracts/ZamaFheCheckIn.sol",
  "abi": [
    {
      "inputs": [],
      "stateMutability": "nonpayable",
      "type": "constructor"
    },
    {
      "inputs": [],
      "name": "HandlesAlreadySavedForRequestID",
      "type": "error"
    },
    {
      "inputs": [],
      "name": "InvalidKMSSignatures",
      "type": "error"
    },
    {
      "inputs": [],
      "name": "NoHandleFoundForRequestID",
      "type": "error"
    },
    {
      "anonymous": false,
      "inputs": [
        {
          "indexed": true,
          "internalType": "uint256",
          "name": "meetingId",
          "type": "uint256"
        },
        {
          "indexed": false,
          "internalType": "address",
          "name": "participant",
          "type": "address"
        },
        {
          "indexed": false,
          "internalType": "bool",
          "name": "isCheckedIn",
          "type": "bool"
        }
      ],
      "name": "CheckInStatusDecrypted",
      "type": "event"
    },
    {
      "anonymous": false,
      "inputs": [
        {
          "indexed": true,
          "internalType": "uint256",
          "name": "meetingId",
          "type": "uint256"
        },
        {
          "indexed": false,
          "internalType": "address",
          "name": "participantAddress",
          "type": "address"
        },
        {
          "indexed": false,
          "internalType": "uint256",
          "name": "timestamp",
          "type": "uint256"
        }
      ],
      "name": "CheckedIn",
      "type": "event"
    },
    {
      "anonymous": false,
      "inputs": [
        {
          "indexed": true,
          "internalType": "uint256",
          "name": "requestID",
          "type": "uint256"
        }
      ],
      "name": "DecryptionFulfilled",
      "type": "event"
    },
    {
      "anonymous": false,
      "inputs": [
        {
          "indexed": true,
          "internalType": "uint256",
          "name": "meetingId",
          "type": "uint256"
        },
        {
          "indexed": false,
          "internalType": "address",
          "name": "creator",
          "type": "address"
        },
        {
          "indexed": false,
          "internalType": "string",
          "name": "title",
          "type": "string"
        },
        {
          "indexed": false,
          "internalType": "uint256",
          "name": "maxParticipants",
          "type": "uint256"
        },
        {
          "indexed": false,
          "internalType": "uint256",
          "name": "checkInFee",
          "type": "uint256"
        }
      ],
      "name": "MeetingCreated",
      "type": "event"
    },
    {
      "anonymous": false,
      "inputs": [
        {
          "indexed": true,
          "internalType": "uint256",
          "name": "meetingId",
          "type": "uint256"
        },
        {
          "indexed": false,
          "internalType": "uint256",
          "name": "duration",
          "type": "uint256"
        },
        {
          "indexed": false,
          "internalType": "uint32",
          "name": "participantCount",
          "type": "uint32"
        },
        {
          "indexed": false,
          "internalType": "uint32",
          "name": "totalFees",
          "type": "uint32"
        }
      ],
      "name": "MeetingEnded",
      "type": "event"
    },
    {
      "anonymous": false,
      "inputs": [
        {
          "indexed": true,
          "internalType": "uint256",
          "name": "meetingId",
          "type": "uint256"
        },
        {
          "indexed": false,
          "internalType": "uint32",
          "name": "participantCount",
          "type": "uint32"
        },
        {
          "indexed": false,
          "internalType": "uint32",
          "name": "totalFees",
          "type": "uint32"
        }
      ],
      "name": "MeetingStatsDecrypted",
      "type": "event"
    },
    {
      "inputs": [],
      "name": "admin",
      "outputs": [
        {
          "internalType": "address",
          "name": "",
          "type": "address"
        }
      ],
      "stateMutability": "view",
      "type": "function"
    },
    {
      "inputs": [
        {
          "internalType": "uint256",
          "name": "requestId",
          "type": "uint256"
        },
        {
          "internalType": "bytes",
          "name": "cleartexts",
          "type": "bytes"
        },
        {
          "internalType": "bytes",
          "name": "proof",
          "type": "bytes"
        }
      ],
      "name": "callbackCheckInStatus",
      "outputs": [],
      "stateMutability": "nonpayable",
      "type": "function"
    },
    {
      "inputs": [
        {
          "internalType": "uint256",
          "name": "_meetingId",
          "type": "uint256"
        }
      ],
      "name": "checkIn",
      "outputs": [],
      "stateMutability": "payable",
      "type": "function"
    },
    {
      "inputs": [
        {
          "internalType": "string",
          "name": "_title",
          "type": "string"
        },
        {
          "internalType": "uint256",
          "name": "_maxParticipants",
          "type": "uint256"
        },
        {
          "internalType": "uint256",
          "name": "_checkInFee",
          "type": "uint256"
        },
        {
          "internalType": "uint256",
          "name": "_duration",
          "type": "uint256"
        }
      ],
      "name": "createMeeting",
      "outputs": [],
      "stateMutability": "payable",
      "type": "function"
    },
    {
      "inputs": [
        {
          "internalType": "uint256",
          "name": "requestId",
          "type": "uint256"
        },
        {
          "internalType": "bytes",
          "name": "cleartexts",
          "type": "bytes"
        },
        {
          "internalType": "bytes",
          "name": "proof",
          "type": "bytes"
        }
      ],
      "name": "decryptMeetingStats",
      "outputs": [],
      "stateMutability": "nonpayable",
      "type": "function"
    },
    {
      "inputs": [
        {
          "internalType": "uint256",
          "name": "_meetingId",
          "type": "uint256"
        }
      ],
      "name": "endMeeting",
      "outputs": [],
      "stateMutability": "nonpayable",
      "type": "function"
    },
    {
      "inputs": [],
      "name": "maximumMeetingDuration",
      "outputs": [
        {
          "internalType": "uint256",
          "name": "",
          "type": "uint256"
        }
      ],
      "stateMutability": "view",
      "type": "function"
    },
    {
      "inputs": [
        {
          "internalType": "uint256",
          "name": "",
          "type": "uint256"
        }
      ],
      "name": "meetings",
      "outputs": [
        {
          "internalType": "address",
          "name": "creator",
          "type": "address"
        },
        {
          "internalType": "string",
          "name": "title",
          "type": "string"
        },
        {
          "internalType": "uint256",
          "name": "startTime",
          "type": "uint256"
        },
        {
          "internalType": "uint256",
          "name": "endTime",
          "type": "uint256"
        },
        {
          "internalType": "uint256",
          "name": "maxParticipants",
          "type": "uint256"
        },
        {
          "internalType": "enum ZamaFheCheckIn.MeetingStatus",
          "name": "status",
          "type": "uint8"
        },
        {
          "internalType": "uint256",
          "name": "checkInFee",
          "type": "uint256"
        },
        {
          "internalType": "euint32",
          "name": "encryptedParticipantCount",
          "type": "bytes32"
        },
        {
          "internalType": "euint32",
          "name": "encryptedTotalFees",
          "type": "bytes32"
        },
        {
          "internalType": "uint32",
          "name": "decryptedParticipantCount",
          "type": "uint32"
        },
        {
          "internalType": "uint32",
          "name": "decryptedTotalFees",
          "type": "uint32"
        }
      ],
      "stateMutability": "view",
      "type": "function"
    },
    {
      "inputs": [
        {
          "internalType": "address",
          "name": "",
          "type": "address"
        }
      ],
      "name": "meetingsCreated",
      "outputs": [
        {
          "internalType": "uint256",
          "name": "",
          "type": "uint256"
        }
      ],
      "stateMutability": "view",
      "type": "function"
    },
    {
      "inputs": [],
      "name": "minimumCheckInFee",
      "outputs": [
        {
          "internalType": "uint256",
          "name": "",
          "type": "uint256"
        }
      ],
      "stateMutability": "view",
      "type": "function"
    },
    {
      "inputs": [],
      "name": "nextMeetingId",
      "outputs": [
        {
          "internalType": "uint256",
          "name": "",
          "type": "uint256"
        }
      ],
      "stateMutability": "view",
      "type": "function"
    },
    {
      "inputs": [
        {
          "internalType": "uint256",
          "name": "",
          "type": "uint256"
        },
        {
          "internalType": "address",
          "name": "",
          "type": "address"
        }
      ],
      "name": "participantStatus",
      "outputs": [
        {
          "internalType": "euint32",
          "name": "encryptedCheckInCount",
          "type": "bytes32"
        }
      ],
      "stateMutability": "view",
      "type": "function"
    },
    {
      "inputs": [],
      "name": "protocolId",
      "outputs": [
        {
          "internalType": "uint256",
          "name": "",
          "type": "uint256"
        }
      ],
      "stateMutability": "pure",
      "type": "function"
    },
    {
      "inputs": [
        {
          "internalType": "uint256",
          "name": "_meetingId",
          "type": "uint256"
        }
      ],
      "name": "requestCheckInStatus",
      "outputs": [],
      "stateMutability": "nonpayable",
      "type": "function"
    },
    {
      "inputs": [
        {
          "internalType": "uint256",
          "name": "_newDuration",
          "type": "uint256"
        }
      ],
      "name": "setMaximumDuration",
      "outputs": [],
      "stateMutability": "nonpayable",
      "type": "function"
    },
    {
      "inputs": [
        {
          "internalType": "uint256",
          "name": "_newFee",
          "type": "uint256"
        }
      ],
      "name": "setMinimumFee",
      "outputs": [],
      "stateMutability": "nonpayable",
      "type": "function"
    },
    {
      "inputs": [],
      "name": "withdrawFees",
      "outputs": [],
      "stateMutability": "nonpayable",
      "type": "function"
    }
  ],
  "bytecode": "0x608060405234610176575f606061001461017a565b828152826020820152826040820152015261002d61017a565b606073687820221192c5b662b25367f70076a37bc79b6c9182815273848b0066793bcc60346da1f49049357399b8d59580602083015273a02cda4ca3a71d7c46997716f4283aa851c2881291826040820152731364cbbf2cdf5032c47d8226a6f6fbd2afcdacac938491015260018060a01b0319937f9e7b61f58c47dc699ac88507c4f5bb9f121c03808c5676a8078fe583e464970090858254161790557f9e7b61f58c47dc699ac88507c4f5bb9f121c03808c5676a8078fe583e464970190848254161790557f9e7b61f58c47dc699ac88507c4f5bb9f121c03808c5676a8078fe583e464970290838254161790557f9e7b61f58c47dc699ac88507c4f5bb9f121c03808c5676a8078fe583e46497039082825416179055600160035566038d7ea4c6800060055562093a80600655339060045416176004556040516119ca90816101ae8239f35b5f80fd5b60405190608082016001600160401b0381118382101761019957604052565b634e487b7160e01b5f52604160045260245ffdfe60406080815260049081361015610014575f80fd5b5f3560e01c8063182a7506146112785780631e7400a3146110845780632994d894146110415780633bdcbc9614611023578063401efc1914610ff7578063476343ee14610fa457806351b5823a14610f695780638460168a14610dfb57806386646d7f14610a5a578063a1a840ea14610a3c578063b0569a271461072e578063b2ae35d514610710578063b7013e6214610414578063da1f12ab146103f8578063e6ac61a314610351578063e95a644f146101015763f851a440146100d7575f80fd5b346100fd575f3660031901126100fd57905490516001600160a01b039091168152602090f35b5f80fd5b5090602091826003193601126100fd5781359283151580610346575b61012690611577565b835f525f8152815f2060ff6005820154166002811015610333576102fe57600281015442106102ce5760068101908154341061029857855f5260028352835f20335f528352835f2094855415610289575b60086007830192610191845461018b61194f565b9061179f565b845501928463ffffffff855492541692604460018060a01b035f8051602061199e8339815191525416945f8a519687948593639cd07acb60e01b85528185015260248401525af191821561027f575f92610246575b50926102307f6b2e4e52ba8b5cff4a90d18b1efd0f88c74ed562b5dd3b13f01a1759699b2db2979361021e610230946102379761179f565b835561022861194f565b85555461185d565b505461185d565b508151903382524290820152a2005b91509591928482813d8311610278575b61026081836112cc565b810103126100fd5790519195909291906102306101e6565b503d610256565b86513d5f823e3d90fd5b6102916118fd565b8655610177565b835162461bcd60e51b8152808601849052601060248201526f496e73756666696369656e742066656560801b6044820152606490fd5b50905162461bcd60e51b815291820152600b60248201526a139bdd081cdd185c9d195960aa1b6044820152606490fd5b50905162461bcd60e51b815291820152601060248201526f4d656574696e6720696e61637469766560801b6044820152606490fd5b602185634e487b7160e01b5f525260245ffd5b50600354841061011d565b50346100fd5761036036611352565b9091805f526007602052835f20549461037a861515611450565b5f1986019586116103e557506103ce836103bf63ffffffff947fec87e43d8f563508859aa162bcd432fcbc0eb3ea7023401622a898ce598b41b597966103d3956115b5565b602080825183010191016114af565b611538565b511615158151903382526020820152a2005b601190634e487b7160e01b5f525260245ffd5b50346100fd575f3660031901126100fd57602090516127118152f35b50346100fd576020806003193601126100fd5782359283151580610705575b61043c90611577565b835f5260028252825f20335f528252825f20549081156106cf57835167ffffffffffffffff818601818111838210176106bc57865260019060018352858301948636873761048984611538565b525f927f878245876662ba28a480c5ea71726db859fb50222b0a3d7cbbc21cfa336faf009384549660018060a01b03807f9e7b61f58c47dc699ac88507c4f5bb9f121c03808c5676a8078fe583e46497005416803b156100fd575f8c518092637d6e912360e11b82528d8c830152818381610507602482018c6118ca565b03925af180156106b25761069f575b507f9e7b61f58c47dc699ac88507c4f5bb9f121c03808c5676a8078fe583e46497025416803b1561069b57828b518092633263b83b60e01b82528b8b8301526060602483015281838161056c606482018b6118ca565b63e6ac61a360e01b604483015203925af1801561069157908391610679575b508890527f878245876662ba28a480c5ea71726db859fb50222b0a3d7cbbc21cfa336faf01808a528a832054610669578883528952898220925193841161065657600160401b841161065657825484845580851061062f575b50918152878120905b83811061061e5750505050506106038154611569565b9055600185018095116103e557505f90815260079091522055005b8251828201559188019184016105ed565b83835285858b852092830192015b82811061064b5750506105e4565b5f815501869061063d565b634e487b7160e01b825260418752602482fd5b8a51633f06d22b60e01b81528890fd5b610682906112a4565b61068d57815f61058b565b5080fd5b8b513d85823e3d90fd5b8280fd5b6106aa9193506112a4565b5f915f610516565b8c513d5f823e3d90fd5b604184634e487b7160e01b5f525260245ffd5b835162461bcd60e51b8152908101839052601060248201526f139bc81cdd185d1d5cc81c9958dbdc9960821b6044820152606490fd5b506003548410610433565b50346100fd575f3660031901126100fd576020906005549051908152f35b50346100fd576020806003193601126100fd5782359283151580610a31575b61075690611577565b5f848152808352839020546001600160a01b039190821633036109ff57845f525f8352835f206005810180549060ff82166002811015610333576109cf574260038401556001809260ff19161790558551606081019067ffffffffffffffff91818110838211176109bc578852600281526008878201948936873760078101546107df84611538565b5201546107eb82611559565b525f7f878245876662ba28a480c5ea71726db859fb50222b0a3d7cbbc21cfa336faf0094855497807f9e7b61f58c47dc699ac88507c4f5bb9f121c03808c5676a8078fe583e46497005416803b156100fd575f8c518092637d6e912360e11b82528d8c830152818381610861602482018c6118ca565b03925af180156106b2576109a9575b507f9e7b61f58c47dc699ac88507c4f5bb9f121c03808c5676a8078fe583e46497025416803b1561069b57828b518092633263b83b60e01b82528b8b830152606060248301528183816108c6606482018b6118ca565b631e7400a360e01b604483015203925af1801561069157908391610995575b508890527f878245876662ba28a480c5ea71726db859fb50222b0a3d7cbbc21cfa336faf01808a528a832054610669578883528952898220925193841161065657600160401b841161065657825484845580851061096e575b50918152878120905b83811061095d5750505050506106038154611569565b825182820155918801918401610947565b83835285858b852092830192015b82811061098a57505061093e565b5f815501869061097c565b61099e906112a4565b61068d57815f6108e5565b6109b49193506112a4565b5f915f610870565b604186634e487b7160e01b5f525260245ffd5b865162461bcd60e51b8152808501879052600a6024820152694e6f742061637469766560b01b6044820152606490fd5b835162461bcd60e51b8152908101839052600c60248201526b27b7363c9031b932b0ba37b960a11b6044820152606490fd5b50600354841061074d565b50346100fd575f3660031901126100fd576020906006549051908152f35b5060803660031901126100fd5781359167ffffffffffffffff918284116100fd57366023850112156100fd57610a9a6024943690868186013591016112ee565b8435604491823592606490825115610dcb578315610d9457600654823511610d61576005548510610d3457838502858104851486151715610d22573410610cec57505060035495610aea87611569565b600355865f526020955f8752855f2098336bffffffffffffffffffffffff60a01b8b5416178a55600192838b01918551918211610cda5750610b2c8254611399565b601f8111610c94575b5088601f8211600114610c065795809593610bed9593837f6adde59d8104822f96fe78ef64b4a4fae3e800d0b71bb7d5b6981308c87e73379d9e9460809d9c9b9a5f91610bfb575b505f19600383901b1c191690861b1790555b4260028401558201558560068201556005810160ff198154169055610bb26118fd565b60078201556008610bc16118fd565b910155335f528652845f20610bd68154611569565b9055845196879633885287015260808601906113f2565b9284015260608301520390a2005b90508701515f610b7d565b601f19821690835f528a5f20915f5b818110610c7f57509386847f6adde59d8104822f96fe78ef64b4a4fae3e800d0b71bb7d5b6981308c87e73379e9f95948b9a989460809f9e9d9c96610bed9b9910610c67575b5050811b019055610b8f565b8901515f1960f88460031b161c191690555f80610c5b565b88830151845592870192918c01918c01610c15565b825f52895f20601f830160051c8101918b8410610cd0575b601f0160051c019085905b828110610cc5575050610b35565b5f8155018590610cb7565b9091508190610cac565b634e487b7160e01b5f90815260418552fd5b73125b9cdd59999a58da595b9d0819195c1bdcda5d60621b879160148b60208a519562461bcd60e51b8752860152840152820152fd5b89601189634e487b7160e01b5f52525ffd5b6a46656520746f6f206c6f7760a81b8791600b8b60208a519562461bcd60e51b8752860152840152820152fd5b70111d5c985d1a5bdb88195e18d959591959607a1b879160118b60208a519562461bcd60e51b8752860152840152820152fd5b7414185c9d1a58da5c185b9d1cc81c995c5d5a5c9959605a1b879160158b60208a519562461bcd60e51b8752860152840152820152fd5b6d151a5d1b19481c995c5d5a5c995960921b8791600e8b60208a519562461bcd60e51b8752860152840152820152fd5b50346100fd57602090816003193601126100fd5782355f525f8252805f209160018060a01b038354169260019160018201845180945f90835493610e3e85611399565b94858552866001821691825f14610f47575050600114610f0b575b5050610e67925003846112cc565b60028201549160038101548782015460ff6005840154166006840154916007850154936009600887015496015497610eb463ffffffff9a8c519d8e610160918152818c82015201906113f2565b9a8c015260608b015260808a01526002811015610ef85788995060a089015260c088015260e08701526101008601528282166101208601521c166101408301520390f35b60218a634e487b7160e01b5f525260245ffd5b8592505f52815f20905f915b858310610f2f575050610e6793508201015f80610e59565b8054838a018501528894508693909201918101610f17565b9250935050610e6794915060ff191682840152151560051b8201015f80610e59565b5090346100fd5760203660031901126100fd57356001600160a01b03811691908290036100fd576020915f5260018252805f20549051908152f35b5090346100fd575f3660031901126100fd57545f908190819081906001600160a01b0316610fd3338214611417565b4790828215610fee575bf115610fe557005b513d5f823e3d90fd5b506108fc610fdd565b82346100fd5760203660031901126100fd5761101d60018060a01b038254163314611417565b35600655005b50346100fd575f3660031901126100fd576020906003549051908152f35b50346100fd57806003193601126100fd576024356001600160a01b038116908190036100fd57602092355f5260028352815f20905f528252805f20549051908152f35b50346100fd5761109336611352565b92919390845f5260209360078552835f2054956110b1871515611450565b5f19870196871161126557865f525f8652845f209360ff60058601541660028110156112525760010361121b575082916110fc936110ee926115b5565b8480825183010191016114af565b9263ffffffff918261110d86611538565b5116945f80808061115688600988019b8c549067ffffffff000000006111328a611559565b518c1b169167ffffffffffffffff19161717808d55891c168960148204169061148e565b86546001600160a01b0316828215611212575bf11561120857916111f08492887f8190e82787481905963d406153d03aa84e6ca15fae186e7a85bcf138dd2b90648887876111d47feafbf9271a6af6a8ca416c7d163e10ac4334495be49a30931b10a8d086c01c2f9d9b6111cc60609e9c611538565b511692611559565b5116825191825287820152a2600260038201549101549061148e565b9354908351948552828216818601521c1690820152a2005b84513d5f823e3d90fd5b506108fc611169565b855162461bcd60e51b815290810187905260116024820152701359595d1a5b99c81b9bdd08195b991959607a1b6044820152606490fd5b602182634e487b7160e01b5f525260245ffd5b601184634e487b7160e01b5f525260245ffd5b82346100fd5760203660031901126100fd5761129e60018060a01b038254163314611417565b35600555005b67ffffffffffffffff81116112b857604052565b634e487b7160e01b5f52604160045260245ffd5b90601f8019910116810190811067ffffffffffffffff8211176112b857604052565b92919267ffffffffffffffff82116112b85760405191611318601f8201601f1916602001846112cc565b8294818452818301116100fd578281602093845f960137010152565b9080601f830112156100fd5781602061134f933591016112ee565b90565b60606003198201126100fd576004359167ffffffffffffffff6024358181116100fd578361138291600401611334565b926044359182116100fd5761134f91600401611334565b90600182811c921680156113c7575b60208310146113b357565b634e487b7160e01b5f52602260045260245ffd5b91607f16916113a8565b5f5b8381106113e25750505f910152565b81810151838201526020016113d3565b9060209161140b815180928185528580860191016113d1565b601f01601f1916010190565b1561141e57565b60405162461bcd60e51b815260206004820152600a60248201526927b7363c9030b236b4b760b11b6044820152606490fd5b1561145757565b60405162461bcd60e51b815260206004820152600f60248201526e125b9d985b1a59081c995c5d595cdd608a1b6044820152606490fd5b9190820391821161149b57565b634e487b7160e01b5f52601160045260245ffd5b9060209081838203126100fd57825167ffffffffffffffff938482116100fd570181601f820112156100fd5780519384116112b8578360051b90604051946114f9858401876112cc565b855283808601928201019283116100fd578301905b82821061151c575050505090565b815163ffffffff811681036100fd57815290830190830161150e565b8051156115455760200190565b634e487b7160e01b5f52603260045260245ffd5b8051600110156115455760400190565b5f19811461149b5760010190565b1561157e57565b60405162461bcd60e51b815260206004820152600f60248201526e496e76616c6964206d656574696e6760881b6044820152606490fd5b9190825f527f878245876662ba28a480c5ea71726db859fb50222b0a3d7cbbc21cfa336faf0191602091838352604093845f20541561178e57855f528352835f209084518083868295549384815201905f52865f20925f5b8882821061177857505050611624925003836112cc565b80518085019081861161149b57860180911161149b576116c55f8694611673896116d8968151968161165f89935180928d80870191016113d1565b8201908a82015203888101875201856112cc565b6116e760018060a01b037f9e7b61f58c47dc699ac88507c4f5bb9f121c03808c5676a8078fe583e46497035416948a51988997889687956378542ead60e01b87526060600488015260648701906118ca565b60031993848783030160248801526113f2565b918483030160448501526113f2565b03925af191821561176e575f92611737575b50501561172757507f1af0453083661051f6e56e5c070792320652e612154bf9af8637bb1e7655b99d5f80a2565b5163cf6c44e960e01b8152600490fd5b90809250813d8311611767575b61174e81836112cc565b810103126100fd575180151581036100fd575f806116f9565b503d611744565b83513d5f823e3d90fd5b855484526001958601958895509301920161160d565b845163d66ca67560e01b8152600490fd5b90811561184d575b801561183b575b602090606460018060a01b035f8051602061199e8339815191525416935f604051958694859363022f65e760e31b8552600485015260248401528160448401525af1908115611830575f91611801575090565b90506020813d602011611828575b8161181c602093836112cc565b810103126100fd575190565b3d915061180f565b6040513d5f823e3d90fd5b5060206118466118fd565b90506117ae565b90506118576118fd565b906117a7565b7f9e7b61f58c47dc699ac88507c4f5bb9f121c03808c5676a8078fe583e4649700546001600160a01b0316803b156100fd575f8091604460405180948193635ca4b5b160e11b83528760048401523060248401525af18015611830576118c1575090565b61134f906112a4565b9081518082526020808093019301915f5b8281106118e9575050505090565b8351855293810193928101926001016118db565b5f8051602061199e83398151915254604051639cd07acb60e01b81525f600480830182905260248301529091602091839160449183916001600160a01b03165af1908115611830575f91611801575090565b5f602060018060a01b035f8051602061199e8339815191525416604460405180948193639cd07acb60e01b835260016004840152600460248401525af1908115611830575f9161180157509056fe9e7b61f58c47dc699ac88507c4f5bb9f121c03808c5676a8078fe583e4649701a164736f6c6343000818000a",
  "linkReferences": {},
  "deployedLinkReferences": {}
}